:100000000C9435000C945D000C945D000C945D0024
:100010000C945D000C945D000C945D000C945D00EC
:100020000C945D000C945D000C945D000C945D00DC
:100030000C945D000C945D000C945D000C945D00CC
:100040000C946B010C945D000C94DB010C94B501D5
:100050000C945D000C945D000C945D000C945D00AC
:100060000C945D000C945D009D0211241FBECFEF27
:10007000D8E0DEBFCDBF11E0A0E0B1E0EEEAF5E0F0
:1000800002C005900D92A032B107D9F721E0A0E29D
:10009000B1E001C01D92A63CB207E1F710E0C5E354
:1000A000D0E004C02197FE010E94CA02C433D107E8
:1000B000C9F70E940D020C94D5020C940000CF9257
:1000C000DF92EF92FF920F931F93CF93DF936C0118
:1000D0007A018B01C0E0D0E0CE15DF0589F0D801B0
:1000E0006D918D01D601ED91FC910190F081E02D93
:1000F000C6010995892B11F47E0102C02196ECCF2F
:10010000C701DF91CF911F910F91FF90EF90DF908A
:10011000CF900895089580E090E00895FC01538DFC
:10012000448D252F30E0842F90E0821B930B5417D1
:1001300010F0CF96089501970895FC01918D828D5E
:10014000981761F0828DDF01A80FB11D5D968C912B
:10015000928D9F5F9F73928F90E008958FEF9FEF36
:100160000895FC01918D828D981731F0828DE80FF2
:10017000F11D858D90E008958FEF9FEF0895FC01AC
:10018000918D228D892F90E0805C9F4F821B910979
:100190008F739927089580E291E00E94BF0021E0CB
:1001A000892B09F420E0822F0895FC01848DDF0162
:1001B000A80FB11DA35ABF4F2C91848D90E00196DA
:1001C0008F739927848FA689B7892C93A089B189C9
:1001D0008C9180648C93938D848D981306C00288D3
:1001E000F389E02D80818F7D80830895EF92FF92C7
:1001F0000F931F93CF93DF93EC0181E0888F9B8D4A
:100200008C8D981305C0E889F989808185FD24C00B
:10021000F62E0B8D10E00F5F1F4F0F731127E02E8E
:100220008C8DE8120CC00FB607FCFACFE889F9896B
:10023000808185FFF5CFCE010E94D500F1CF8B8D57
:10024000FE01E80FF11DE35AFF4FF0820B8FEA89A0
:10025000FB898081806207C0EE89FF896083E8891D
:10026000F98980818064808381E090E0DF91CF9183
:100270001F910F91FF90EF900895CF93DF93EC01C2
:10028000888D8823C9F0EA89FB89808185FD05C0B6
:10029000A889B9898C9186FD0FC00FB607FCF5CFF0
:1002A000808185FFF2CFA889B9898C9185FFEDCF38
:1002B000CE010E94D500E7CFDF91CF91089580E075
:1002C00090E0892B29F00E94CB0081110C94000052
:1002D00008950E94D0021F920F920FB60F92112420
:1002E0002F933F938F939F93AF93BF938091C201BE
:1002F0009091C301A091C401B091C5013091C10199
:1003000023E0230F2D3720F40196A11DB11D05C058
:1003100026E8230F0296A11DB11D2093C1018093F1
:10032000C2019093C301A093C401B093C501809111
:10033000BD019091BE01A091BF01B091C001019695
:10034000A11DB11D8093BD019093BE01A093BF017B
:10035000B093C001BF91AF919F918F913F912F9129
:100360000F900FBE0F901F9018951F920F920FB60F
:100370000F9211242F933F934F935F936F937F932B
:100380008F939F93AF93BF93EF93FF9380E291E09E
:100390000E94D500FF91EF91BF91AF919F918F91F6
:1003A0007F916F915F914F913F912F910F900FBE71
:1003B0000F901F9018951F920F920FB60F92112455
:1003C0002F938F939F93EF93FF93E0913001F091E0
:1003D00031018081E0913601F091370182FD12C038
:1003E0009081809139018F5F8F7320913A0182173C
:1003F00051F0E0913901F0E0E05EFE4F958F80937F
:10040000390101C08081FF91EF919F918F912F91D0
:100410000F900FBE0F901F901895789484B582604E
:1004200084BD84B5816084BD85B5826085BD85B598
:10043000816085BD80916E00816080936E00109216
:100440008100809181008260809381008091810091
:100450008160809381008091800081608093800022
:100460008091B10084608093B1008091B000816080
:100470008093B00080917A00846080937A008091AC
:100480007A00826080937A0080917A008160809304
:100490007A0080917A00806880937A001092C1007F
:1004A000E0913001F091310182E08083E0913001F0
:1004B000F09131011082E0912C01F0912D01108218
:1004C000E0912E01F0912F0180E18083109238019C
:1004D000E0913401F091350186E08083E0913201B2
:1004E000F0913301808180618083E0913201F0914D
:1004F0003301808188608083E0913201F091330183
:10050000808180688083E0913201F09133018081A5
:100510008F7D80834AE050E062E171E080E291E00B
:100520000E945F0042E050E06DE171E080E291E006
:100530000E945F000E945F01EDCFE0E2F1E01382D4
:10054000128288EE93E0A0E0B0E084839583A683D6
:10055000B78384E091E09183808385EC90E0958778
:10056000848784EC90E09787868780EC90E0918B7D
:10057000808B81EC90E0938B828B82EC90E0958B6A
:10058000848B86EC90E0978B868B118E128E138E67
:10059000148E0895EE0FFF1F0590F491E02D09943D
:0E05A00081E090E0F8940C94D502F894FFCF1F
:1005AE0000000000F6005F008E003D01BF009D00C0
:1005BE00B10033373634343337323034000D0A005D
:00000001FF
